{"abi":[{"type":"constructor","inputs":[{"name":"name_","type":"string","internalType":"string"},{"name":"symbol_","type":"string","internalType":"string"},{"name":"initialAdmin","type":"address","internalType":"address"},{"name":"initialSupply","type":"uint256","internalType":"uint256"},{"name":"maxSupply_","type":"uint256","internalType":"uint256"}],"stateMutability":"nonpayable"},{"type":"function","name":"DEFAULT_ADMIN_ROLE","inputs":[],"outputs":[{"name":"","type":"bytes32","internalType":"bytes32"}],"stateMutability":"view"},{"type":"function","name":"DOMAIN_SEPARATOR","inputs":[],"outputs":[{"name":"","type":"bytes32","internalType":"bytes32"}],"stateMutability":"view"},{"type":"function","name":"MINTER_ROLE","inputs":[],"outputs":[{"name":"","type":"bytes32","internalType":"bytes32"}],"stateMutability":"view"},{"type":"function","name":"PAUSER_ROLE","inputs":[],"outputs":[{"name":"","type":"bytes32","internalType":"bytes32"}],"stateMutability":"view"},{"type":"function","name":"allowance","inputs":[{"name":"owner","type":"address","internalType":"address"},{"name":"spender","type":"address","internalType":"address"}],"outputs":[{"name":"","type":"uint256","internalType":"uint256"}],"stateMutability":"view"},{"type":"function","name":"approve","inputs":[{"name":"spender","type":"address","internalType":"address"},{"name":"value","type":"uint256","internalType":"uint256"}],"outputs":[{"name":"","type":"bool","internalType":"bool"}],"stateMutability":"nonpayable"},{"type":"function","name":"balanceOf","inputs":[{"name":"account","type":"address","internalType":"address"}],"outputs":[{"name":"","type":"uint256","internalType":"uint256"}],"stateMutability":"view"},{"type":"function","name":"burn","inputs":[{"name":"value","type":"uint256","internalType":"uint256"}],"outputs":[],"stateMutability":"nonpayable"},{"type":"function","name":"burnFrom","inputs":[{"name":"account","type":"address","internalType":"address"},{"name":"value","type":"uint256","internalType":"uint256"}],"outputs":[],"stateMutability":"nonpayable"},{"type":"function","name":"cap","inputs":[],"outputs":[{"name":"","type":"uint256","internalType":"uint256"}],"stateMutability":"view"},{"type":"function","name":"decimals","inputs":[],"outputs":[{"name":"","type":"uint8","internalType":"uint8"}],"stateMutability":"view"},{"type":"function","name":"eip712Domain","inputs":[],"outputs":[{"name":"fields","type":"bytes1","internalType":"bytes1"},{"name":"name","type":"string","internalType":"string"},{"name":"version","type":"string","internalType":"string"},{"name":"chainId","type":"uint256","internalType":"uint256"},{"name":"verifyingContract","type":"address","internalType":"address"},{"name":"salt","type":"bytes32","internalType":"bytes32"},{"name":"extensions","type":"uint256[]","internalType":"uint256[]"}],"stateMutability":"view"},{"type":"function","name":"getRoleAdmin","inputs":[{"name":"role","type":"bytes32","internalType":"bytes32"}],"outputs":[{"name":"","type":"bytes32","internalType":"bytes32"}],"stateMutability":"view"},{"type":"function","name":"grantRole","inputs":[{"name":"role","type":"bytes32","internalType":"bytes32"},{"name":"account","type":"address","internalType":"address"}],"outputs":[],"stateMutability":"nonpayable"},{"type":"function","name":"hasRole","inputs":[{"name":"role","type":"bytes32","internalType":"bytes32"},{"name":"account","type":"address","internalType":"address"}],"outputs":[{"name":"","type":"bool","internalType":"bool"}],"stateMutability":"view"},{"type":"function","name":"mint","inputs":[{"name":"to","type":"address","internalType":"address"},{"name":"amount","type":"uint256","internalType":"uint256"}],"outputs":[],"stateMutability":"nonpayable"},{"type":"function","name":"name","inputs":[],"outputs":[{"name":"","type":"string","internalType":"string"}],"stateMutability":"view"},{"type":"function","name":"nonces","inputs":[{"name":"owner","type":"address","internalType":"address"}],"outputs":[{"name":"","type":"uint256","internalType":"uint256"}],"stateMutability":"view"},{"type":"function","name":"pause","inputs":[],"outputs":[],"stateMutability":"nonpayable"},{"type":"function","name":"paused","inputs":[],"outputs":[{"name":"","type":"bool","internalType":"bool"}],"stateMutability":"view"},{"type":"function","name":"permit","inputs":[{"name":"owner","type":"address","internalType":"address"},{"name":"spender","type":"address","internalType":"address"},{"name":"value","type":"uint256","internalType":"uint256"},{"name":"deadline","type":"uint256","internalType":"uint256"},{"name":"v","type":"uint8","internalType":"uint8"},{"name":"r","type":"bytes32","internalType":"bytes32"},{"name":"s","type":"bytes32","internalType":"bytes32"}],"outputs":[],"stateMutability":"nonpayable"},{"type":"function","name":"renounceRole","inputs":[{"name":"role","type":"bytes32","internalType":"bytes32"},{"name":"callerConfirmation","type":"address","internalType":"address"}],"outputs":[],"stateMutability":"nonpayable"},{"type":"function","name":"revokeRole","inputs":[{"name":"role","type":"bytes32","internalType":"bytes32"},{"name":"account","type":"address","internalType":"address"}],"outputs":[],"stateMutability":"nonpayable"},{"type":"function","name":"supportsInterface","inputs":[{"name":"interfaceId","type":"bytes4","internalType":"bytes4"}],"outputs":[{"name":"","type":"bool","internalType":"bool"}],"stateMutability":"view"},{"type":"function","name":"symbol","inputs":[],"outputs":[{"name":"","type":"string","internalType":"string"}],"stateMutability":"view"},{"type":"function","name":"totalSupply","inputs":[],"outputs":[{"name":"","type":"uint256","internalType":"uint256"}],"stateMutability":"view"},{"type":"function","name":"transfer","inputs":[{"name":"to","type":"address","internalType":"address"},{"name":"value","type":"uint256","internalType":"uint256"}],"outputs":[{"name":"","type":"bool","internalType":"bool"}],"stateMutability":"nonpayable"},{"type":"function","name":"transferFrom","inputs":[{"name":"from","type":"address","internalType":"address"},{"name":"to","type":"address","internalType":"address"},{"name":"value","type":"uint256","internalType":"uint256"}],"outputs":[{"name":"","type":"bool","internalType":"bool"}],"stateMutability":"nonpayable"},{"type":"function","name":"unpause","inputs":[],"outputs":[],"stateMutability":"nonpayable"},{"type":"event","name":"Approval","inputs":[{"name":"owner","type":"address","indexed":true,"internalType":"address"},{"name":"spender","type":"address","indexed":true,"internalType":"address"},{"name":"value","type":"uint256","indexed":false,"internalType":"uint256"}],"anonymous":false},{"type":"event","name":"EIP712DomainChanged","inputs":[],"anonymous":false},{"type":"event","name":"Paused","inputs":[{"name":"account","type":"address","indexed":false,"internalType":"address"}],"anonymous":false},{"type":"event","name":"RoleAdminChanged","inputs":[{"name":"role","type":"bytes32","indexed":true,"internalType":"bytes32"},{"name":"previousAdminRole","type":"bytes32","indexed":true,"internalType":"bytes32"},{"name":"newAdminRole","type":"bytes32","indexed":true,"internalType":"bytes32"}],"anonymous":false},{"type":"event","name":"RoleGranted","inputs":[{"name":"role","type":"bytes32","indexed":true,"internalType":"bytes32"},{"name":"account","type":"address","indexed":true,"internalType":"address"},{"name":"sender","type":"address","indexed":true,"internalType":"address"}],"anonymous":false},{"type":"event","name":"RoleRevoked","inputs":[{"name":"role","type":"bytes32","indexed":true,"internalType":"bytes32"},{"name":"account","type":"address","indexed":true,"internalType":"address"},{"name":"sender","type":"address","indexed":true,"internalType":"address"}],"anonymous":false},{"type":"event","name":"Transfer","inputs":[{"name":"from","type":"address","indexed":true,"internalType":"address"},{"name":"to","type":"address","indexed":true,"internalType":"address"},{"name":"value","type":"uint256","indexed":false,"internalType":"uint256"}],"anonymous":false},{"type":"event","name":"Unpaused","inputs":[{"name":"account","type":"address","indexed":false,"internalType":"address"}],"anonymous":false},{"type":"error","name":"AccessControlBadConfirmation","inputs":[]},{"type":"error","name":"AccessControlUnauthorizedAccount","inputs":[{"name":"account","type":"address","internalType":"address"},{"name":"neededRole","type":"bytes32","internalType":"bytes32"}]},{"type":"error","name":"ECDSAInvalidSignature","inputs":[]},{"type":"error","name":"ECDSAInvalidSignatureLength","inputs":[{"name":"length","type":"uint256","internalType":"uint256"}]},{"type":"error","name":"ECDSAInvalidSignatureS","inputs":[{"name":"s","type":"bytes32","internalType":"bytes32"}]},{"type":"error","name":"ERC20ExceededCap","inputs":[{"name":"increasedSupply","type":"uint256","internalType":"uint256"},{"name":"cap","type":"uint256","internalType":"uint256"}]},{"type":"error","name":"ERC20InsufficientAllowance","inputs":[{"name":"spender","type":"address","internalType":"address"},{"name":"allowance","type":"uint256","internalType":"uint256"},{"name":"needed","type":"uint256","internalType":"uint256"}]},{"type":"error","name":"ERC20InsufficientBalance","inputs":[{"name":"sender","type":"address","internalType":"address"},{"name":"balance","type":"uint256","internalType":"uint256"},{"name":"needed","type":"uint256","internalType":"uint256"}]},{"type":"error","name":"ERC20InvalidApprover","inputs":[{"name":"approver","type":"address","internalType":"address"}]},{"type":"error","name":"ERC20InvalidCap","inputs":[{"name":"cap","type":"uint256","internalType":"uint256"}]},{"type":"error","name":"ERC20InvalidReceiver","inputs":[{"name":"receiver","type":"address","internalType":"address"}]},{"type":"error","name":"ERC20InvalidSender","inputs":[{"name":"sender","type":"address","internalType":"address"}]},{"type":"error","name":"ERC20InvalidSpender","inputs":[{"name":"spender","type":"address","internalType":"address"}]},{"type":"error","name":"ERC2612ExpiredSignature","inputs":[{"name":"deadline","type":"uint256","internalType":"uint256"}]},{"type":"error","name":"ERC2612InvalidSigner","inputs":[{"name":"signer","type":"address","internalType":"address"},{"name":"owner","type":"address","internalType":"address"}]},{"type":"error","name":"EnforcedPause","inputs":[]},{"type":"error","name":"ExpectedPause","inputs":[]},{"type":"error","name":"InvalidAccountNonce","inputs":[{"name":"account","type":"address","internalType":"address"},{"name":"currentNonce","type":"uint256","internalType":"uint256"}]},{"type":"error","name":"InvalidAdminAddress","inputs":[]},{"type":"error","name":"InvalidNameOrSymbol","inputs":[]},{"type":"error","name":"InvalidShortString","inputs":[]},{"type":"error","name":"StringTooLong","inputs":[{"name":"str","type":"string","internalType":"string"}]}],"bytecode":{"object":"0x61018060408181523462000579576200209880380380916200002282866200057d565b843982019060a083830312620005795782516001600160401b03919082811162000579578362000054918601620005c4565b906020938486015190848211620005795762000072918701620005c4565b85820151946001600160a01b03861690818703620005795760806060890151980151978451978589018981108982111762000484578652600194858a52838a019a603160f81b8c528851968a881162000484576003805498828a811c9a1680156200056e575b888b10146200055a57601f998a811162000512575b5080888b8211600114620004a4575f9162000498575b505f1982841b1c191690831b1781555b8351908c821162000484576004998a548481811c9116801562000479575b8a82101462000466578181116200041e575b5088908311600114620003b957829383915f94620003ad575b501b925f19911b1c19161787555b801562000397576080526200017f88620007cb565b97610140988952620001918b62000969565b996101609a8b528151868301209c8d9c6101009e8f525190209b8c6101209d8e524660c0528a5190888201927f8b73c3c69bb8fe3d512ecc4cf759cc79239f7b179b0ffacaa9a75d522b39400f84528c83015260608201524660808201523060a082015260a0815260c0810192818410908411176200038457828b5251902060a0523060e052861562000376575051159081156200036b575b506200035b57806200024062000253926200061f565b506200024c816200068f565b5062000730565b5080620002b5575b5050505051926115a0948562000ab8863960805185818161084801526109b8015260a05185610fe4015260c051856110b0015260e05185610fae01525184611033015251836110590152518261054b015251816105750152f35b60ff600554166200034b5760025481810180911162000338576002555f8381528083528581208054830190558551918252917fddf252ad1be2c89b69c2b068fc378daa952ba7f163c4a11628f55a4df523b3ef91a36080516002548181116200031f57806200025b565b604493519263279e7e1560e21b84528301526024820152fd5b601185634e487b7160e01b5f525260245ffd5b845163d93c066560e01b81528490fd5b8551632d903dc960e21b81528590fd5b905051155f6200022a565b63016ed19f60e21b81528790fd5b60418a634e487b7160e01b5f525260245ffd5b875163392e1e2760e01b81525f81890152602490fd5b87015193505f6200015c565b90601f198316918b5f52838a5f20935f5b8c88838310620004065750505010620003ec575b505050811b0187556200016a565b8601519060f8845f19921b161c191690555f8080620003de565b858c01518855909601959384019387935001620003ca565b8b5f52895f208280860160051c8201928c87106200045c575b0160051c019085905b8281106200045057505062000143565b5f815501859062000440565b9250819262000437565b60228c634e487b7160e01b5f525260245ffd5b90607f169062000131565b634e487b7160e01b5f52604160045260245ffd5b90508c01515f62000103565b8492508d90601f19831691855f528b5f20925f5b8d828210620004f15750508411620004d9575b505050811b01815562000113565b01515f1983861b60f8161c191690555f808e620004cb565b929484849395979892960151815501940192018f90918795949392620004b8565b825f52885f208b80840160051c8201928b851062000550575b0160051c019084905b82811062000544575050620000ed565b5f815501849062000534565b925081926200052b565b634e487b7160e01b5f52602260045260245ffd5b99607f1699620000d8565b5f80fd5b601f909101601f19168101906001600160401b038211908210176200048457604052565b5f5b838110620005b35750505f910152565b8181015183820152602001620005a3565b81601f82011215620005795780516001600160401b038111620004845760405192620005fb601f8301601f1916602001856200057d565b8184526020828401011162000579576200061c9160208085019101620005a1565b90565b6001600160a01b03165f8181525f8051602062002078833981519152602052604090205460ff166200068a575f8181525f805160206200207883398151915260205260408120805460ff191660011790553391905f80516020620020588339815191528180a4600190565b505f90565b6001600160a01b03165f8181527fd5d09b8f3165a736d25b1a14611612ac91830c1b82012b1c33b2dac7c90a064960205260409020547f9f2df0fed2c77648de5860a4cc508cd0818c85b8b8a1ab4ceeef8d981c8956a6919060ff166200072a57815f52600960205260405f20815f5260205260405f20600160ff1982541617905533915f80516020620020588339815191525f80a4600190565b50505f90565b6001600160a01b03165f8181527f84574a31e2f767388bfa57bc81ff2590df95d3022c04c363cca3e37ee960863160205260409020547f65d7a28e3265b37a6474929f336521b332c1681b933f6cb9f3376673440d862a919060ff166200072a57815f52600960205260405f20815f5260205260405f20600160ff1982541617905533915f80516020620020588339815191525f80a4600190565b805160209081811015620008485750601f825111620008065780825192015190808310620007f857501790565b825f19910360031b1b161790565b6044906200083a9260405193849263305a27a960e01b845280600485015282519283918260248701528686019101620005a1565b601f01601f19168101030190fd5b906001600160401b0382116200048457600654926001938481811c911680156200095e575b838210146200055a57601f811162000927575b5081601f8411600114620008bf57509282939183925f94620008b3575b50501b915f199060031b1c19161760065560ff90565b015192505f806200089d565b919083601f19811660065f52845f20945f905b888383106200090c5750505010620008f3575b505050811b0160065560ff90565b01515f1960f88460031b161c191690555f8080620008e5565b858701518855909601959485019487935090810190620008d2565b60065f5284601f845f20920160051c820191601f860160051c015b8281106200095257505062000880565b5f815501859062000942565b90607f16906200086d565b805160209081811015620009965750601f825111620008065780825192015190808310620007f857501790565b906001600160401b0382116200048457600754926001938481811c9116801562000aac575b838210146200055a57601f811162000a75575b5081601f841160011462000a0d57509282939183925f9462000a01575b50501b915f199060031b1c19161760075560ff90565b015192505f80620009eb565b919083601f19811660075f52845f20945f905b8883831062000a5a575050501062000a41575b505050811b0160075560ff90565b01515f1960f88460031b161c191690555f808062000a33565b85870151885590960195948501948793509081019062000a20565b60075f5284601f845f20920160051c820191601f860160051c015b82811062000aa0575050620009ce565b5f815501859062000a90565b90607f1690620009bb56fe6080604090808252600480361015610015575f80fd5b5f3560e01c91826301ffc9a714610b9d5750816306fdde0314610acb578163095ea7b314610aa257816318160ddd14610a8457816323b872dd14610a48578163248a9ca314610a1e5781632f2ff15d146109f6578163313ce567146109db578163355274ea146109a15781633644e5151461097e57816336568abe1461093a5781633f4ba83a146108d357816340c10f191461078657816342966c681461076a5781635c975abb1461074757816370a082311461071157816379cc6790146106e25781637ecebe00146106ab5781638456cb591461065257816384b0196e1461053457816391d14854146104f057816395d89b4114610404578163a217fddf146103ea578163a9059cbb146103ba578163d505accf1461025b578163d539139314610221578163d547741f146101e557508063dd62ed3e1461019c5763e63ab1e91461015f575f80fd5b34610198575f36600319011261019857602090517f65d7a28e3265b37a6474929f336521b332c1681b933f6cb9f3376673440d862a8152f35b5f80fd5b50346101985780600319360112610198576020906101b8610c2d565b6101c0610c43565b9060018060a01b038091165f5260018452825f2091165f528252805f20549051908152f35b823461019857806003193601126101985761021f913561021a6001610208610c43565b93835f5260096020525f200154610f0b565b6110d6565b005b8234610198575f36600319011261019857602090517f9f2df0fed2c77648de5860a4cc508cd0818c85b8b8a1ab4ceeef8d981c8956a68152f35b9050346101985760e036600319011261019857610276610c2d565b61027e610c43565b906044359260643560843560ff81168103610198578142116103a35760018060a01b039081851692835f526008602052885f209081549160018301905589519060208201927f6e71edae12b1b97f4d1f60370fef10105fa2faae0126114a169c64845d6126c98452868c840152858a1660608401528a608084015260a083015260c082015260c0815260e0810181811067ffffffffffffffff821117610390578a525190206103629161035991610333610fab565b908b519161190160f01b83526002830152602282015260c43591604260a435922061145a565b909291926114e7565b168181036103755761021f8686866111f1565b86516325c0072360e11b815292830152602482015260449150fd5b604187634e487b7160e01b5f525260245ffd5b865163313c898160e11b8152808401839052602490fd5b82346101985780600319360112610198576020906103e36103d9610c2d565b6024359033610db0565b5160018152f35b8234610198575f36600319011261019857602090515f8152f35b905034610198575f36600319011261019857815191825f835461042681610c59565b90818452602095600191876001821691825f146104c957505060011461046d575b505050610469929161045a910385610cc1565b51928284938452830190610bef565b0390f35b5f90815286935091907f8a35acfbc15ff81a39ae7d344fd709f28e8600b4aa8c65c6b64bfe7fe36bd19b5b8284106104b1575050508201018161045a610469610447565b8054848a018601528895508794909301928101610498565b60ff19168782015293151560051b8601909301935084925061045a91506104699050610447565b823461019857806003193601126101985760209161050c610c43565b90355f5260098352815f209060018060a01b03165f52825260ff815f20541690519015158152f35b905034610198575f3660031901126101985761056f7f000000000000000000000000000000000000000000000000000000000000000061129c565b916105997f000000000000000000000000000000000000000000000000000000000000000061139d565b815191602091602084019484861067ffffffffffffffff87111761063f57506105f482602092876105e799989795525f85528151988998600f60f81b8a5260e0868b015260e08a0190610bef565b9188830390890152610bef565b914660608701523060808701525f60a087015285830360c087015251918281520192915f5b82811061062857505050500390f35b835185528695509381019392810192600101610619565b604190634e487b7160e01b5f525260245ffd5b8234610198575f3660031901126101985760207f62e78cea01bee320cd4e420270b5ea74000d11b0c9f74754ebdbfc544b05a2589161068f610e92565b61069761127e565b600160ff19600554161760055551338152a1005b8234610198576020366003190112610198576020906001600160a01b036106d0610c2d565b165f5260088252805f20549051908152f35b8234610198573660031901126101985761021f6106fd610c2d565b6024359061070c823383610ce3565b61114a565b8234610198576020366003190112610198576020906001600160a01b03610736610c2d565b165f525f8252805f20549051908152f35b8234610198575f3660031901126101985760209060ff6005541690519015158152f35b346101985760203660031901126101985761021f90353361114a565b9050346101985781600319360112610198576107a0610c2d565b602435907f9f2df0fed2c77648de5860a4cc508cd0818c85b8b8a1ab4ceeef8d981c8956a6805f526009602052845f20335f5260205260ff855f205416156108b557506001600160a01b031690811561089f576107fb61127e565b60025481810180911161088c5760205f927fddf252ad1be2c89b69c2b068fc378daa952ba7f163c4a11628f55a4df523b3ef926002558484528382528684208181540190558651908152a37f000000000000000000000000000000000000000000000000000000000000000060025481811161087357005b604493519263279e7e1560e21b84528301526024820152fd5b601184634e487b7160e01b5f525260245ffd5b835163ec442f0560e01b81525f81850152602490fd5b845163e2517d3f60e01b815233818601526024810191909152604490fd5b8234610198575f366003190112610198576108ec610e92565b6005549160ff83161561092c577f5db9ee0a495bf2e6ff9c91a7834c1ba4fdd244a5e8aa4e537bd38aeae4b073aa6020838560ff191660055551338152a1005b9051638dfc202b60e01b8152fd5b8234610198578060031936011261019857610953610c43565b90336001600160a01b0383160361096f575061021f91356110d6565b5163334bd91960e11b81529050fd5b8234610198575f3660031901126101985760209061099a610fab565b9051908152f35b8234610198575f36600319011261019857602090517f00000000000000000000000000000000000000000000000000000000000000008152f35b8234610198575f366003190112610198576020905160128152f35b823461019857806003193601126101985761021f9135610a196001610208610c43565b610f2d565b823461019857602036600319011261019857602091355f52600982526001815f2001549051908152f35b8234610198576060366003190112610198576020906103e3610a68610c2d565b610a70610c43565b60443591610a7f833383610ce3565b610db0565b8234610198575f366003190112610198576020906002549051908152f35b82346101985780600319360112610198576020906103e3610ac1610c2d565b60243590336111f1565b8234610198575f3660031901126101985780516003549091825f610aee84610c59565b808352602094600190866001821691825f14610b7b575050600114610b20575b5050610469929161045a910385610cc1565b9085925060035f527fc2575a0e9e593c00f959f8c92f12db2869c3395a3b0502d05e2516446f71f85b915f925b828410610b63575050508201018161045a610b0e565b8054848a018601528895508794909301928101610b4d565b60ff19168682015292151560051b8501909201925083915061045a9050610b0e565b903461019857602036600319011261019857359063ffffffff60e01b821680920361019857602091637965db0b60e01b8114908115610bde575b5015158152f35b6301ffc9a760e01b14905083610bd7565b91908251928382525f5b848110610c19575050825f602080949584010152601f8019910116010190565b602081830181015184830182015201610bf9565b600435906001600160a01b038216820361019857565b602435906001600160a01b038216820361019857565b90600182811c92168015610c87575b6020831014610c7357565b634e487b7160e01b5f52602260045260245ffd5b91607f1691610c68565b6040810190811067ffffffffffffffff821117610cad57604052565b634e487b7160e01b5f52604160045260245ffd5b90601f8019910116810190811067ffffffffffffffff821117610cad57604052565b919060018060a01b0380931692835f526001602052604093845f2091831691825f52602052845f2054925f198410610d1e575b505050505050565b848410610d8057508015610d69578115610d52575f526001602052835f20905f5260205203905f20555f8080808080610d16565b8451634a1406b160e11b81525f6004820152602490fd5b845163e602df0560e01b81525f6004820152602490fd5b8551637dc7a0d960e11b81526001600160a01b039190911660048201526024810184905260448101859052606490fd5b916001600160a01b03808416928315610e7a5716928315610e6257610dd361127e565b825f525f60205260405f205490828210610e305750817fddf252ad1be2c89b69c2b068fc378daa952ba7f163c4a11628f55a4df523b3ef92602092855f525f84520360405f2055845f5260405f20818154019055604051908152a3565b60405163391434e360e21b81526001600160a01b03919091166004820152602481019190915260448101829052606490fd5b60405163ec442f0560e01b81525f6004820152602490fd5b604051634b637e8f60e11b81525f6004820152602490fd5b335f9081527f84574a31e2f767388bfa57bc81ff2590df95d3022c04c363cca3e37ee960863160205260409020547f65d7a28e3265b37a6474929f336521b332c1681b933f6cb9f3376673440d862a9060ff1615610eed5750565b6044906040519063e2517d3f60e01b82523360048301526024820152fd5b805f52600960205260405f20335f5260205260ff60405f20541615610eed5750565b90815f52600960205260405f209060018060a01b031690815f5260205260ff60405f205416155f14610fa557815f52600960205260405f20815f5260205260405f20600160ff1982541617905533917f2f8788117e7eff1d82e926ec794901d17c78024a50270940304540a733656f0d5f80a4600190565b50505f90565b307f00000000000000000000000000000000000000000000000000000000000000006001600160a01b031614806110ad575b15611006577f000000000000000000000000000000000000000000000000000000000000000090565b60405160208101907f8b73c3c69bb8fe3d512ecc4cf759cc79239f7b179b0ffacaa9a75d522b39400f82527f000000000000000000000000000000000000000000000000000000000000000060408201527f000000000000000000000000000000000000000000000000000000000000000060608201524660808201523060a082015260a0815260c0810181811067ffffffffffffffff821117610cad5760405251902090565b507f00000000000000000000000000000000000000000000000000000000000000004614610fdd565b90815f52600960205260405f209060018060a01b031690815f5260205260ff60405f2054165f14610fa557815f52600960205260405f20815f5260205260405f2060ff19815416905533917ff6391f5c32d9c69d2a47ea670b442974b53935d1edc7fd64eb21e047a839171b5f80a4600190565b91906001600160a01b038316908115610e7a5761116561127e565b815f525f60205260405f2054938185106111bf57506020817fddf252ad1be2c89b69c2b068fc378daa952ba7f163c4a11628f55a4df523b3ef925f95968587528684520360408620558060025403600255604051908152a3565b60405163391434e360e21b81526001600160a01b03919091166004820152602481018590526044810191909152606490fd5b6001600160a01b03908116918215611266571691821561124e5760207f8c5be1e5ebec7d5bd14f71427d1e84f3dd0314c0f7b2291e5b200ac8c7c3b92591835f526001825260405f20855f5282528060405f2055604051908152a3565b604051634a1406b160e11b81525f6004820152602490fd5b60405163e602df0560e01b81525f6004820152602490fd5b60ff6005541661128a57565b60405163d93c066560e01b8152600490fd5b60ff81146112da5760ff811690601f82116112c857604051916112be83610c91565b8252602082015290565b604051632cd44ac360e21b8152600490fd5b50604051600654815f6112ec83610c59565b80835292602090600190818116908115611379575060011461131a575b505061131792500382610cc1565b90565b91509260065f527ff652222313e28459528d920b65115c16c04f3efc82aaedc97be59f3f377c0d3f935f925b82841061136157506113179450505081016020015f80611309565b85548785018301529485019486945092810192611346565b9150506020925061131794915060ff191682840152151560051b8201015f80611309565b60ff81146113bf5760ff811690601f82116112c857604051916112be83610c91565b50604051600754815f6113d183610c59565b8083529260209060019081811690811561137957506001146113fb57505061131792500382610cc1565b91509260075f527fa66cc928b5edb82af9bd49922954155ab7b0942694bea4ce44661d9a8736c688935f925b82841061144257506113179450505081016020015f80611309565b85548785018301529485019486945092810192611427565b91907f7fffffffffffffffffffffffffffffff5d576e7357a4501ddfe92f46681b20a084116114dc579160209360809260ff5f9560405194855216868401526040830152606082015282805260015afa156114d1575f516001600160a01b038116156114c757905f905f90565b505f906001905f90565b6040513d5f823e3d90fd5b5050505f9160039190565b600481101561155657806114f9575050565b600181036115135760405163f645eedf60e01b8152600490fd5b600281036115345760405163fce698f760e01b815260048101839052602490fd5b60031461153e5750565b602490604051906335e2f38360e21b82526004820152fd5b634e487b7160e01b5f52602160045260245ffdfea2646970667358221220cfe9587fe476a312aa6d197df7a438b3f59345fe0bba84c2c417783acad4535d64736f6c634300081800332f8788117e7eff1d82e926ec794901d17c78024a50270940304540a733656f0dec8156718a8372b1db44bb411437d0870f3e3790d4a08526d024ce1b0b668f6b","linkReferences":{}},"methodIdentifiers":{"DEFAULT_ADMIN_ROLE()":"a217fddf","DOMAIN_SEPARATOR()":"3644e515","MINTER_ROLE()":"d5391393","PAUSER_ROLE()":"e63ab1e9","allowance(address,address)":"dd62ed3e","approve(address,uint256)":"095ea7b3","balanceOf(address)":"70a08231","burn(uint256)":"42966c68","burnFrom(address,uint256)":"79cc6790","cap()":"355274ea","decimals()":"313ce567","eip712Domain()":"84b0196e","getRoleAdmin(bytes32)":"248a9ca3","grantRole(bytes32,address)":"2f2ff15d","hasRole(bytes32,address)":"91d14854","mint(address,uint256)":"40c10f19","name()":"06fdde03","nonces(address)":"7ecebe00","pause()":"8456cb59","paused()":"5c975abb","permit(address,address,uint256,uint256,uint8,bytes32,bytes32)":"d505accf","renounceRole(bytes32,address)":"36568abe","revokeRole(bytes32,address)":"d547741f","supportsInterface(bytes4)":"01ffc9a7","symbol()":"95d89b41","totalSupply()":"18160ddd","transfer(address,uint256)":"a9059cbb","transferFrom(address,address,uint256)":"23b872dd","unpause()":"3f4ba83a"},"id":50}