{"abi":[{"type":"constructor","inputs":[{"name":"_token","type":"address","internalType":"address"},{"name":"_lzEndpoint","type":"address","internalType":"address"},{"name":"_delegate","type":"address","internalType":"address"}],"stateMutability":"nonpayable"},{"type":"function","name":"SEND","inputs":[],"outputs":[{"name":"","type":"uint16","internalType":"uint16"}],"stateMutability":"view"},{"type":"function","name":"SEND_AND_CALL","inputs":[],"outputs":[{"name":"","type":"uint16","internalType":"uint16"}],"stateMutability":"view"},{"type":"function","name":"allowInitializePath","inputs":[{"name":"origin","type":"tuple","internalType":"struct Origin","components":[{"name":"srcEid","type":"uint32","internalType":"uint32"},{"name":"sender","type":"bytes32","internalType":"bytes32"},{"name":"nonce","type":"uint64","internalType":"uint64"}]}],"outputs":[{"name":"","type":"bool","internalType":"bool"}],"stateMutability":"view"},{"type":"function","name":"approvalRequired","inputs":[],"outputs":[{"name":"","type":"bool","internalType":"bool"}],"stateMutability":"pure"},{"type":"function","name":"combineOptions","inputs":[{"name":"_eid","type":"uint32","internalType":"uint32"},{"name":"_msgType","type":"uint16","internalType":"uint16"},{"name":"_extraOptions","type":"bytes","internalType":"bytes"}],"outputs":[{"name":"","type":"bytes","internalType":"bytes"}],"stateMutability":"view"},{"type":"function","name":"decimalConversionRate","inputs":[],"outputs":[{"name":"","type":"uint256","internalType":"uint256"}],"stateMutability":"view"},{"type":"function","name":"endpoint","inputs":[],"outputs":[{"name":"","type":"address","internalType":"contract ILayerZeroEndpointV2"}],"stateMutability":"view"},{"type":"function","name":"enforcedOptions","inputs":[{"name":"eid","type":"uint32","internalType":"uint32"},{"name":"msgType","type":"uint16","internalType":"uint16"}],"outputs":[{"name":"enforcedOption","type":"bytes","internalType":"bytes"}],"stateMutability":"view"},{"type":"function","name":"getAmountCanBeSent","inputs":[{"name":"_dstEid","type":"uint32","internalType":"uint32"}],"outputs":[{"name":"currentAmountInFlight","type":"uint256","internalType":"uint256"},{"name":"amountCanBeSent","type":"uint256","internalType":"uint256"}],"stateMutability":"view"},{"type":"function","name":"isComposeMsgSender","inputs":[{"name":"","type":"tuple","internalType":"struct Origin","components":[{"name":"srcEid","type":"uint32","internalType":"uint32"},{"name":"sender","type":"bytes32","internalType":"bytes32"},{"name":"nonce","type":"uint64","internalType":"uint64"}]},{"name":"","type":"bytes","internalType":"bytes"},{"name":"_sender","type":"address","internalType":"address"}],"outputs":[{"name":"","type":"bool","internalType":"bool"}],"stateMutability":"view"},{"type":"function","name":"isPeer","inputs":[{"name":"_eid","type":"uint32","internalType":"uint32"},{"name":"_peer","type":"bytes32","internalType":"bytes32"}],"outputs":[{"name":"","type":"bool","internalType":"bool"}],"stateMutability":"view"},{"type":"function","name":"lzReceive","inputs":[{"name":"_origin","type":"tuple","internalType":"struct Origin","components":[{"name":"srcEid","type":"uint32","internalType":"uint32"},{"name":"sender","type":"bytes32","internalType":"bytes32"},{"name":"nonce","type":"uint64","internalType":"uint64"}]},{"name":"_guid","type":"bytes32","internalType":"bytes32"},{"name":"_message","type":"bytes","internalType":"bytes"},{"name":"_executor","type":"address","internalType":"address"},{"name":"_extraData","type":"bytes","internalType":"bytes"}],"outputs":[],"stateMutability":"payable"},{"type":"function","name":"lzReceiveAndRevert","inputs":[{"name":"_packets","type":"tuple[]","internalType":"struct InboundPacket[]","components":[{"name":"origin","type":"tuple","internalType":"struct Origin","components":[{"name":"srcEid","type":"uint32","internalType":"uint32"},{"name":"sender","type":"bytes32","internalType":"bytes32"},{"name":"nonce","type":"uint64","internalType":"uint64"}]},{"name":"dstEid","type":"uint32","internalType":"uint32"},{"name":"receiver","type":"address","internalType":"address"},{"name":"guid","type":"bytes32","internalType":"bytes32"},{"name":"value","type":"uint256","internalType":"uint256"},{"name":"executor","type":"address","internalType":"address"},{"name":"message","type":"bytes","internalType":"bytes"},{"name":"extraData","type":"bytes","internalType":"bytes"}]}],"outputs":[],"stateMutability":"payable"},{"type":"function","name":"lzReceiveSimulate","inputs":[{"name":"_origin","type":"tuple","internalType":"struct Origin","components":[{"name":"srcEid","type":"uint32","internalType":"uint32"},{"name":"sender","type":"bytes32","internalType":"bytes32"},{"name":"nonce","type":"uint64","internalType":"uint64"}]},{"name":"_guid","type":"bytes32","internalType":"bytes32"},{"name":"_message","type":"bytes","internalType":"bytes"},{"name":"_executor","type":"address","internalType":"address"},{"name":"_extraData","type":"bytes","internalType":"bytes"}],"outputs":[],"stateMutability":"payable"},{"type":"function","name":"msgInspector","inputs":[],"outputs":[{"name":"","type":"address","internalType":"address"}],"stateMutability":"view"},{"type":"function","name":"nextNonce","inputs":[{"name":"","type":"uint32","internalType":"uint32"},{"name":"","type":"bytes32","internalType":"bytes32"}],"outputs":[{"name":"nonce","type":"uint64","internalType":"uint64"}],"stateMutability":"view"},{"type":"function","name":"oApp","inputs":[],"outputs":[{"name":"","type":"address","internalType":"address"}],"stateMutability":"view"},{"type":"function","name":"oAppVersion","inputs":[],"outputs":[{"name":"senderVersion","type":"uint64","internalType":"uint64"},{"name":"receiverVersion","type":"uint64","internalType":"uint64"}],"stateMutability":"pure"},{"type":"function","name":"oftVersion","inputs":[],"outputs":[{"name":"interfaceId","type":"bytes4","internalType":"bytes4"},{"name":"version","type":"uint64","internalType":"uint64"}],"stateMutability":"pure"},{"type":"function","name":"owner","inputs":[],"outputs":[{"name":"","type":"address","internalType":"address"}],"stateMutability":"view"},{"type":"function","name":"pause","inputs":[],"outputs":[],"stateMutability":"nonpayable"},{"type":"function","name":"paused","inputs":[],"outputs":[{"name":"","type":"bool","internalType":"bool"}],"stateMutability":"view"},{"type":"function","name":"peers","inputs":[{"name":"eid","type":"uint32","internalType":"uint32"}],"outputs":[{"name":"peer","type":"bytes32","internalType":"bytes32"}],"stateMutability":"view"},{"type":"function","name":"preCrime","inputs":[],"outputs":[{"name":"","type":"address","internalType":"address"}],"stateMutability":"view"},{"type":"function","name":"quoteOFT","inputs":[{"name":"_sendParam","type":"tuple","internalType":"struct SendParam","components":[{"name":"dstEid","type":"uint32","internalType":"uint32"},{"name":"to","type":"bytes32","internalType":"bytes32"},{"name":"amountLD","type":"uint256","internalType":"uint256"},{"name":"minAmountLD","type":"uint256","internalType":"uint256"},{"name":"extraOptions","type":"bytes","internalType":"bytes"},{"name":"composeMsg","type":"bytes","internalType":"bytes"},{"name":"oftCmd","type":"bytes","internalType":"bytes"}]}],"outputs":[{"name":"oftLimit","type":"tuple","internalType":"struct OFTLimit","components":[{"name":"minAmountLD","type":"uint256","internalType":"uint256"},{"name":"maxAmountLD","type":"uint256","internalType":"uint256"}]},{"name":"oftFeeDetails","type":"tuple[]","internalType":"struct OFTFeeDetail[]","components":[{"name":"feeAmountLD","type":"int256","internalType":"int256"},{"name":"description","type":"string","internalType":"string"}]},{"name":"oftReceipt","type":"tuple","internalType":"struct OFTReceipt","components":[{"name":"amountSentLD","type":"uint256","internalType":"uint256"},{"name":"amountReceivedLD","type":"uint256","internalType":"uint256"}]}],"stateMutability":"view"},{"type":"function","name":"quoteSend","inputs":[{"name":"_sendParam","type":"tuple","internalType":"struct SendParam","components":[{"name":"dstEid","type":"uint32","internalType":"uint32"},{"name":"to","type":"bytes32","internalType":"bytes32"},{"name":"amountLD","type":"uint256","internalType":"uint256"},{"name":"minAmountLD","type":"uint256","internalType":"uint256"},{"name":"extraOptions","type":"bytes","internalType":"bytes"},{"name":"composeMsg","type":"bytes","internalType":"bytes"},{"name":"oftCmd","type":"bytes","internalType":"bytes"}]},{"name":"_payInLzToken","type":"bool","internalType":"bool"}],"outputs":[{"name":"msgFee","type":"tuple","internalType":"struct MessagingFee","components":[{"name":"nativeFee","type":"uint256","internalType":"uint256"},{"name":"lzTokenFee","type":"uint256","internalType":"uint256"}]}],"stateMutability":"view"},{"type":"function","name":"rateLimits","inputs":[{"name":"dstEid","type":"uint32","internalType":"uint32"}],"outputs":[{"name":"amountInFlight","type":"uint256","internalType":"uint256"},{"name":"lastUpdated","type":"uint256","internalType":"uint256"},{"name":"limit","type":"uint256","internalType":"uint256"},{"name":"window","type":"uint256","internalType":"uint256"}],"stateMutability":"view"},{"type":"function","name":"renounceOwnership","inputs":[],"outputs":[],"stateMutability":"nonpayable"},{"type":"function","name":"rescueERC20","inputs":[{"name":"_token","type":"address","internalType":"address"},{"name":"_to","type":"address","internalType":"address"},{"name":"_amount","type":"uint256","internalType":"uint256"}],"outputs":[],"stateMutability":"nonpayable"},{"type":"function","name":"send","inputs":[{"name":"_sendParam","type":"tuple","internalType":"struct SendParam","components":[{"name":"dstEid","type":"uint32","internalType":"uint32"},{"name":"to","type":"bytes32","internalType":"bytes32"},{"name":"amountLD","type":"uint256","internalType":"uint256"},{"name":"minAmountLD","type":"uint256","internalType":"uint256"},{"name":"extraOptions","type":"bytes","internalType":"bytes"},{"name":"composeMsg","type":"bytes","internalType":"bytes"},{"name":"oftCmd","type":"bytes","internalType":"bytes"}]},{"name":"_fee","type":"tuple","internalType":"struct MessagingFee","components":[{"name":"nativeFee","type":"uint256","internalType":"uint256"},{"name":"lzTokenFee","type":"uint256","internalType":"uint256"}]},{"name":"_refundAddress","type":"address","internalType":"address"}],"outputs":[{"name":"msgReceipt","type":"tuple","internalType":"struct MessagingReceipt","components":[{"name":"guid","type":"bytes32","internalType":"bytes32"},{"name":"nonce","type":"uint64","internalType":"uint64"},{"name":"fee","type":"tuple","internalType":"struct MessagingFee","components":[{"name":"nativeFee","type":"uint256","internalType":"uint256"},{"name":"lzTokenFee","type":"uint256","internalType":"uint256"}]}]},{"name":"oftReceipt","type":"tuple","internalType":"struct OFTReceipt","components":[{"name":"amountSentLD","type":"uint256","internalType":"uint256"},{"name":"amountReceivedLD","type":"uint256","internalType":"uint256"}]}],"stateMutability":"payable"},{"type":"function","name":"setDelegate","inputs":[{"name":"_delegate","type":"address","internalType":"address"}],"outputs":[],"stateMutability":"nonpayable"},{"type":"function","name":"setEnforcedOptions","inputs":[{"name":"_enforcedOptions","type":"tuple[]","internalType":"struct EnforcedOptionParam[]","components":[{"name":"eid","type":"uint32","internalType":"uint32"},{"name":"msgType","type":"uint16","internalType":"uint16"},{"name":"options","type":"bytes","internalType":"bytes"}]}],"outputs":[],"stateMutability":"nonpayable"},{"type":"function","name":"setMsgInspector","inputs":[{"name":"_msgInspector","type":"address","internalType":"address"}],"outputs":[],"stateMutability":"nonpayable"},{"type":"function","name":"setPeer","inputs":[{"name":"_eid","type":"uint32","internalType":"uint32"},{"name":"_peer","type":"bytes32","internalType":"bytes32"}],"outputs":[],"stateMutability":"nonpayable"},{"type":"function","name":"setPreCrime","inputs":[{"name":"_preCrime","type":"address","internalType":"address"}],"outputs":[],"stateMutability":"nonpayable"},{"type":"function","name":"setRateLimits","inputs":[{"name":"_rateLimitConfigs","type":"tuple[]","internalType":"struct RateLimiter.RateLimitConfig[]","components":[{"name":"dstEid","type":"uint32","internalType":"uint32"},{"name":"limit","type":"uint256","internalType":"uint256"},{"name":"window","type":"uint256","internalType":"uint256"}]}],"outputs":[],"stateMutability":"nonpayable"},{"type":"function","name":"sharedDecimals","inputs":[],"outputs":[{"name":"","type":"uint8","internalType":"uint8"}],"stateMutability":"view"},{"type":"function","name":"token","inputs":[],"outputs":[{"name":"","type":"address","internalType":"address"}],"stateMutability":"view"},{"type":"function","name":"transferOwnership","inputs":[{"name":"newOwner","type":"address","internalType":"address"}],"outputs":[],"stateMutability":"nonpayable"},{"type":"function","name":"unpause","inputs":[],"outputs":[],"stateMutability":"nonpayable"},{"type":"event","name":"ERC20Rescued","inputs":[{"name":"token","type":"address","indexed":true,"internalType":"address"},{"name":"to","type":"address","indexed":true,"internalType":"address"},{"name":"amount","type":"uint256","indexed":false,"internalType":"uint256"}],"anonymous":false},{"type":"event","name":"EnforcedOptionSet","inputs":[{"name":"_enforcedOptions","type":"tuple[]","indexed":false,"internalType":"struct EnforcedOptionParam[]","components":[{"name":"eid","type":"uint32","internalType":"uint32"},{"name":"msgType","type":"uint16","internalType":"uint16"},{"name":"options","type":"bytes","internalType":"bytes"}]}],"anonymous":false},{"type":"event","name":"MsgInspectorSet","inputs":[{"name":"inspector","type":"address","indexed":false,"internalType":"address"}],"anonymous":false},{"type":"event","name":"OFTReceived","inputs":[{"name":"guid","type":"bytes32","indexed":true,"internalType":"bytes32"},{"name":"srcEid","type":"uint32","indexed":false,"internalType":"uint32"},{"name":"toAddress","type":"address","indexed":true,"internalType":"address"},{"name":"amountReceivedLD","type":"uint256","indexed":false,"internalType":"uint256"}],"anonymous":false},{"type":"event","name":"OFTSent","inputs":[{"name":"guid","type":"bytes32","indexed":true,"internalType":"bytes32"},{"name":"dstEid","type":"uint32","indexed":false,"internalType":"uint32"},{"name":"fromAddress","type":"address","indexed":true,"internalType":"address"},{"name":"amountSentLD","type":"uint256","indexed":false,"internalType":"uint256"},{"name":"amountReceivedLD","type":"uint256","indexed":false,"internalType":"uint256"}],"anonymous":false},{"type":"event","name":"OwnershipTransferred","inputs":[{"name":"previousOwner","type":"address","indexed":true,"internalType":"address"},{"name":"newOwner","type":"address","indexed":true,"internalType":"address"}],"anonymous":false},{"type":"event","name":"Paused","inputs":[{"name":"account","type":"address","indexed":false,"internalType":"address"}],"anonymous":false},{"type":"event","name":"PeerSet","inputs":[{"name":"eid","type":"uint32","indexed":false,"internalType":"uint32"},{"name":"peer","type":"bytes32","indexed":false,"internalType":"bytes32"}],"anonymous":false},{"type":"event","name":"PreCrimeSet","inputs":[{"name":"preCrimeAddress","type":"address","indexed":false,"internalType":"address"}],"anonymous":false},{"type":"event","name":"RateLimitsChanged","inputs":[{"name":"rateLimitConfigs","type":"tuple[]","indexed":false,"internalType":"struct RateLimiter.RateLimitConfig[]","components":[{"name":"dstEid","type":"uint32","internalType":"uint32"},{"name":"limit","type":"uint256","internalType":"uint256"},{"name":"window","type":"uint256","internalType":"uint256"}]}],"anonymous":false},{"type":"event","name":"Unpaused","inputs":[{"name":"account","type":"address","indexed":false,"internalType":"address"}],"anonymous":false},{"type":"error","name":"EnforcedPause","inputs":[]},{"type":"error","name":"ExpectedPause","inputs":[]},{"type":"error","name":"InvalidDelegate","inputs":[]},{"type":"error","name":"InvalidEndpointCall","inputs":[]},{"type":"error","name":"InvalidLocalDecimals","inputs":[]},{"type":"error","name":"InvalidOptions","inputs":[{"name":"options","type":"bytes","internalType":"bytes"}]},{"type":"error","name":"InvalidReceiverAddress","inputs":[]},{"type":"error","name":"InvalidTokenAddress","inputs":[]},{"type":"error","name":"LzTokenUnavailable","inputs":[]},{"type":"error","name":"NoPeer","inputs":[{"name":"eid","type":"uint32","internalType":"uint32"}]},{"type":"error","name":"NotEnoughNative","inputs":[{"name":"msgValue","type":"uint256","internalType":"uint256"}]},{"type":"error","name":"OnlyEndpoint","inputs":[{"name":"addr","type":"address","internalType":"address"}]},{"type":"error","name":"OnlyPeer","inputs":[{"name":"eid","type":"uint32","internalType":"uint32"},{"name":"sender","type":"bytes32","internalType":"bytes32"}]},{"type":"error","name":"OnlySelf","inputs":[]},{"type":"error","name":"OwnableInvalidOwner","inputs":[{"name":"owner","type":"address","internalType":"address"}]},{"type":"error","name":"OwnableUnauthorizedAccount","inputs":[{"name":"account","type":"address","internalType":"address"}]},{"type":"error","name":"RateLimitExceeded","inputs":[]},{"type":"error","name":"SafeERC20FailedOperation","inputs":[{"name":"token","type":"address","internalType":"address"}]},{"type":"error","name":"SimulationResult","inputs":[{"name":"result","type":"bytes","internalType":"bytes"}]},{"type":"error","name":"SlippageExceeded","inputs":[{"name":"amountLD","type":"uint256","internalType":"uint256"},{"name":"minAmountLD","type":"uint256","internalType":"uint256"}]}],"bytecode":{"object":"0x60e08060405234610210575f606082612cc280380380916100208285610265565b833981010312610210576100338261029c565b61004b60406100446020860161029c565b940161029c565b60405163313ce56760e01b81526001600160a01b039092169390602083600481885afa928315610205575f93610227575b506001600160a01b03168015610214575f80546001600160a01b0319811683178255604051939183916001600160a01b0316907f8be0079c531659141344cd1fd0a4f28419497f9722a3daafe3b4186f6b6457e09080a36001600160a01b03166080819052803b15610210576024835f8193819563ca5eb5e160e01b845260048401525af18015610205576101ef575b5060ff16600681106101e0576005190160ff81116101cc5760ff1690604d82116101b85750600a0a60a05260c052604051612a1190816102b18239608051818181610551015281816106770152818161099701528181610d8f0152818161174601528181612511015261283b015260a0518181816108e701528181610fbb01528181611e3e015281816125a8015261261d015260c0518181816115ff015281816118fa015261265f0152f35b634e487b7160e01b81526011600452602490fd5b634e487b7160e01b82526011600452602482fd5b6301e9714b60e41b8252600482fd5b6101fc9192505f90610265565b5f9060ff61010c565b6040513d5f823e3d90fd5b5f80fd5b631e4fbdf760e01b5f525f60045260245ffd5b9092506020813d60201161025d575b8161024360209383610265565b81010312610210575160ff8116810361021057915f61007c565b3d9150610236565b601f909101601f19168101906001600160401b0382119082101761028857604052565b634e487b7160e01b5f52604160045260245ffd5b51906001600160a01b03821682036102105756fe60806040526004361015610011575f80fd5b5f3560e01c80630d35b4151461028f578063111ecdad1461028a57806313137d6514610285578063134d4f2514610280578063156a0d0f1461027b57806317442b70146102765780631f5e13341461021c5780633400288b146102715780633b6f743b1461026c5780633f4ba83a1461026757806346f943e91461026257806352ae28791461025d5780635535d461146102585780635a0dfe4d146102535780635c975abb1461024e5780635e280f11146102495780636fc1b31e14610244578063715018a61461023f5780637d25a05e1461023a57806382413eac146102355780638456cb5914610230578063857749b01461022b5780638da5cb5b14610226578063963efcaa146102215780639f68b9641461021c578063ab99095d14610217578063b2118a8d14610212578063b731ea0a1461020d578063b98bd07014610208578063bb0b6a5314610203578063bc70b354146101fe578063bd815db0146101f9578063c272198d146101f4578063c7c7f5b3146101ef578063ca5eb5e1146101ea578063d045a0dc146101e5578063d4243885146101e0578063f2fde38b146101db578063fc0c546a146101d65763ff7bd03d146101d1575f80fd5b611929565b6118e5565b61185c565b6117ec565b6117bb565b61171e565b61155b565b61148e565b61133a565b6112e6565b6112ad565b6111ca565b611150565b611039565b610fde565b6107c3565b610fa4565b610f7d565b610f62565b610f09565b610eab565b610e85565b610e2e565b610dbe565b610d7a565b610d58565b610d12565b610ca8565b610af9565b610a9c565b610a36565b61087b565b6107ec565b6107a2565b61077c565b610761565b61053e565b61045a565b61036a565b908160e09103126102a25790565b5f80fd5b805180835260209291819084018484015e5f828201840152601f01601f1916010190565b939291906102e68560a081019260208091805184520151910152565b60a06040860152815180915260c0850190602060c08260051b8801019301915f905b82821061032e575050505090606061032c9294019060208091805184520151910152565b565b9091929360208061035c60019360bf198c82030186526040838a5180518452015191818582015201906102a6565b960192019201909291610308565b346102a25760203660031901126102a2576004356001600160401b0381116102a25761039a903690600401610294565b6103a261198c565b506103ab61198c565b506040516103b881610b7f565b5f81526001600160401b0360208201526020604051926103d88285610bd5565b5f8452601f1982015f5b81811061042d5750509061040d610429926040810135906104076060820135916119bb565b91611d7a565b909161041761196e565b928352820152604051938493846102ca565b0390f35b839060405161043b81610b7f565b5f8152606083820152828289010152016103e2565b5f9103126102a257565b346102a2575f3660031901126102a2576004546040516001600160a01b039091168152602090f35b60609060031901126102a257600490565b9181601f840112156102a2578235916001600160401b0383116102a257602083818601950101116102a257565b6001600160a01b038116036102a257565b90600319820160e081126102a2576060136102a257600491606435916084356001600160401b0381116102a2578261050b91600401610493565b9290929160a43561051b816104c0565b9160c435906001600160401b0382116102a25761053a91600401610493565b9091565b610547366104d1565b50919492915050337f00000000000000000000000000000000000000000000000000000000000000006001600160a01b03160361074e578135610589816107de565b61059281611d96565b9060208401358092036107295750506105ba6105ae85836125f1565b6001600160a01b031690565b936105e06105d06105cb83856125fd565b61260f565b6105d9856119bb565b9087612643565b916105eb8260281090565b610649575b505061061c7fefed6d3500546b29533b128a29e3a94d70788727f0507505ac12eaf2e578fd9c926119bb565b6040805163ffffffff909216825260208201929092526001600160a01b039094169390819081015b0390a3005b90826106749261066e61065e60408801611dc6565b93610668886119bb565b926126d8565b926126f4565b917f00000000000000000000000000000000000000000000000000000000000000006001600160a01b0316803b156102a257604051633e5ac80960e11b8152935f9185918290849082906106cd908b8d60048501611dd0565b03925af1908115610724577fefed6d3500546b29533b128a29e3a94d70788727f0507505ac12eaf2e578fd9c9361061c9261070a575b50926105f0565b806107185f61071e93610bd5565b80610450565b5f610703565b611cbf565b8061073863ffffffff926107de565b63309afaf360e21b5f521660045260245260445ffd5b6391ac5e4f60e01b5f523360045260245ffd5b346102a2575f3660031901126102a257602060405160028152f35b346102a2575f3660031901126102a2576040805162b9270b60e21b815260016020820152f35b346102a2575f3660031901126102a257604080516001815260026020820152f35b346102a2575f3660031901126102a257602060405160018152f35b63ffffffff8116036102a257565b346102a25760403660031901126102a2577f238399d427b947898edb290f5ff0f9109849b1c3ba196a42e35f00c50a54b98b60043561082a816107de565b60243590610836611dfa565b63ffffffff81165f5260016020528160405f205561086c604051928392836020909392919363ffffffff60408201951681520152565b0390a1005b801515036102a257565b346102a25760403660031901126102a2576004356001600160401b0381116102a2576108ab903690600401610294565b6024356108b781610871565b6108bf61198c565b5081359160608101359061091260408201356108da866107de565b6108e2612584565b61090d7f000000000000000000000000000000000000000000000000000000000000000080926123cd565b6123b5565b91808310610a20576109936040866109788761092e8888611e20565b90610938856107de565b61094061198c565b5061094a85611d96565b61096161095561197d565b63ffffffff9097168752565b602086015285850152606084015215156080830152565b815180938192631bb8518b60e31b8352309060048401611f7f565b03817f00000000000000000000000000000000000000000000000000000000000000006001600160a01b03165afa801561072457610429915f916109f1575b5060405191829182815181526020918201519181019190915260400190565b610a13915060403d604011610a19575b610a0b8183610bd5565b810190611f6b565b826109d2565b503d610a01565b826371c4efed60e01b5f5260045260245260445ffd5b346102a2575f3660031901126102a257610a4e611dfa565b60065460ff811615610a8d5760ff19166006557f5db9ee0a495bf2e6ff9c91a7834c1ba4fdd244a5e8aa4e537bd38aeae4b073aa6020604051338152a1005b638dfc202b60e01b5f5260045ffd5b346102a25760203660031901126102a2576004356001600160401b0381116102a257366023820112156102a25780600401356001600160401b0381116102a25736602460608302840101116102a2576024610af792016119c5565b005b346102a2575f3660031901126102a2576020604051308152f35b6024359061ffff821682036102a257565b359061ffff821682036102a257565b90600182811c92168015610b61575b6020831014610b4d57565b634e487b7160e01b5f52602260045260245ffd5b91607f1691610b42565b634e487b7160e01b5f52604160045260245ffd5b604081019081106001600160401b03821117610b9a57604052565b610b6b565b606081019081106001600160401b03821117610b9a57604052565b608081019081106001600160401b03821117610b9a57604052565b90601f801991011681019081106001600160401b03821117610b9a57604052565b9060405191825f825492610c0984610b33565b8084529360018116908115610c725750600114610c2e575b5061032c92500383610bd5565b90505f9291925260205f20905f915b818310610c5657505090602061032c928201015f610c21565b6020919350806001915483858901015201910190918492610c3d565b90506020925061032c94915060ff191682840152151560051b8201015f610c21565b906020610ca59281815201906102a6565b90565b346102a25760403660031901126102a257610429610cfe610cf9600435610cce816107de565b63ffffffff610cdb610b13565b91165f52600360205260405f209061ffff165f5260205260405f2090565b610bf6565b6040519182916020835260208301906102a6565b346102a25760403660031901126102a2576020610d4e600435610d34816107de565b6024359063ffffffff165f52600160205260405f20541490565b6040519015158152f35b346102a2575f3660031901126102a257602060ff600654166040519015158152f35b346102a2575f3660031901126102a2576040517f00000000000000000000000000000000000000000000000000000000000000006001600160a01b03168152602090f35b346102a25760203660031901126102a2577ff0be4f1e87349231d80c36b33f9e8639658eeaf474014dee15a3e6a4d44141976020600435610dfe816104c0565b610e06611dfa565b600480546001600160a01b0319166001600160a01b03929092169182179055604051908152a1005b346102a2575f3660031901126102a257610e46611dfa565b5f80546001600160a01b0319811682556001600160a01b03167f8be0079c531659141344cd1fd0a4f28419497f9722a3daafe3b4186f6b6457e08280a3005b346102a25760403660031901126102a257610ea16004356107de565b60206040515f8152f35b346102a25760a03660031901126102a257610ec536610482565b506064356001600160401b0381116102a257610ee5903690600401610493565b50506020608435610ef5816104c0565b6040516001600160a01b0390911630148152f35b346102a2575f3660031901126102a257610f21611dfa565b610f29612584565b600160ff1960065416176006557f62e78cea01bee320cd4e420270b5ea74000d11b0c9f74754ebdbfc544b05a2586020604051338152a1005b346102a2575f3660031901126102a257602060405160068152f35b346102a2575f3660031901126102a2575f546040516001600160a01b039091168152602090f35b346102a2575f3660031901126102a25760206040517f00000000000000000000000000000000000000000000000000000000000000008152f35b346102a25760203660031901126102a25763ffffffff600435611000816107de565b165f526005602052608060405f208054906001810154906003600282015491015491604051938452602084015260408301526060820152f35b346102a25760603660031901126102a257600435611056816104c0565b602435611062816104c0565b6044359161106e611dfa565b6001600160a01b0316908115611141576001600160a01b03169182156111325760405163a9059cbb60e01b5f52836004528160245260205f60448180875af160015f5114811615611113575b604091909152156110f7576040519081527f8bbfbb5d7fcacf6fc74005cdede0635561638507f576c95f7f294c22141be2e5908060208101610644565b635274afe760e01b5f526001600160a01b03821660045260245ffd5b6001811516611129573d15843b151516166110ba565b503d5f823e3d90fd5b63502ffa3f60e11b5f5260045ffd5b630f58058360e11b5f5260045ffd5b346102a2575f3660031901126102a2576002546040516001600160a01b039091168152602090f35b9060206003198301126102a2576004356001600160401b0381116102a25760040182601f820112156102a2578035926001600160401b0384116102a2576020808301928560051b0101116102a2579190565b346102a2576111d836611178565b906111e1611dfa565b6111ea826119a4565b906111f86040519283610bd5565b828252602082019260051b8101903682116102a25780935b82851061122057610af7846122ac565b84356001600160401b0381116102a2578201906060823603126102a2576040519161124a83610b9f565b8035611255816107de565b835261126360208201610b24565b60208401526040810135906001600160401b0382116102a257019036601f830112156102a25760209261129d849336908581359101611a6f565b6040820152815201940193611210565b346102a25760203660031901126102a25763ffffffff6004356112cf816107de565b165f526001602052602060405f2054604051908152f35b346102a25760603660031901126102a257600435611303816107de565b61130b610b13565b604435906001600160401b0382116102a25761042992611332610cfe933690600401610493565b929091611b17565b61134336611178565b5f5b8181106113b257604051638e9e709960e01b81525f81600481335afa80156107245761138c915f91611390575b50604051638351eea760e01b815291829160048301610c94565b0390fd5b6113ac91503d805f833e6113a48183610bd5565b810190611cca565b82611372565b6113bd818385611bd0565b906113ed6113e96113cd846119bb565b60208501359063ffffffff165f52600160205260405f20541490565b1590565b6114855760c08201359160a081013561140a610100830183611bf8565b94909161141960e08501611c2a565b93611428610120820182611bf8565b959095303b156102a2575f96611455926040519a8b9889978897633411683760e21b895260048901611c45565b0391305af191821561072457600192611471575b505b01611345565b806107185f61147f93610bd5565b5f611469565b6001915061146b565b346102a25760203660031901126102a25763ffffffff6004356114b0816107de565b165f5260056020526114f8606060405f206040516114cd81610bba565b81548082526001830154918260208201526003600285015494856040840152015494859101526123eb565b60408051928352602083019190915290f35b91608061032c92949361154a604060c0830197805184526001600160401b0360208201511660208501520151604083019060208091805184520151910152565b019060208091805184520151910152565b60803660031901126102a2576004356001600160401b0381116102a257611586903690600401610294565b60403660231901126102a2576064359061159f826104c0565b6115a7611d2c565b506115b061198c565b5080356115d6606083013560408401356115c9846107de565b6115d1612584565b61259f565b9390918260026115f48363ffffffff165f52600560205260405f2090565b015461170e575b50507f00000000000000000000000000000000000000000000000000000000000000006001600160a01b031690813b156102a25760405163079cc67960e41b815233600482015260248101849052915f908390604490829084905af19182156107245761168b926116fa575b506116728585611e20565b61167b866119bb565b9161168536611d52565b92612494565b917f85496b760a4b7f8d66384b9df21b381f5d1b1e79f229a47aaf4c232edc2fe59a6116b561196e565b948386528060208701526116ca8551936119bb565b6040805163ffffffff9290921682526020820195909552938401523392606090a36104296040519283928361150a565b806107185f61170893610bd5565b5f611667565b611717916127b9565b5f826115fb565b346102a2575f60203660031901126102a25760043561173c816104c0565b611744611dfa565b7f00000000000000000000000000000000000000000000000000000000000000006001600160a01b031690813b156102a25760405163ca5eb5e160e01b81526001600160a01b039091166004820152905f908290602490829084905af18015610724576117af575080f35b610af791505f90610bd5565b6117c4366104d1565b50505092903033036117dd576105ba6105ae85836125f1565b63029a949d60e31b5f5260045ffd5b346102a25760203660031901126102a2577fd48d879cef83a1c0bdda516f27b13ddb1b3f8bbac1c9e1511bb2a659c2427760602060043561182c816104c0565b611834611dfa565b600280546001600160a01b0319166001600160a01b03929092169182179055604051908152a1005b346102a25760203660031901126102a257600435611879816104c0565b611881611dfa565b6001600160a01b031680156118d2575f80546001600160a01b03198116831782556001600160a01b0316907f8be0079c531659141344cd1fd0a4f28419497f9722a3daafe3b4186f6b6457e09080a3005b631e4fbdf760e01b5f525f60045260245ffd5b346102a2575f3660031901126102a2576040517f00000000000000000000000000000000000000000000000000000000000000006001600160a01b03168152602090f35b346102a25760603660031901126102a257602061194536610482565b63ffffffff8135611955816107de565b165f52600182528160405f205491013560405191148152f35b6040519061032c604083610bd5565b6040519061032c60a083610bd5565b6040519061199982610b7f565b5f6020838281520152565b6001600160401b038111610b9a5760051b60200190565b35610ca5816107de565b906119ce611dfa565b6119d7816119a4565b916119e56040519384610bd5565b81835260606020840192028101903682116102a257915b818310611a0f5750505061032c90612058565b6060833603126102a2576020606091604051611a2a81610b9f565b8535611a35816107de565b81528286013583820152604086013560408201528152019201916119fc565b6001600160401b038111610b9a57601f01601f191660200190565b929192611a7b82611a54565b91611a896040519384610bd5565b8294818452818301116102a2578281602093845f960137010152565b805191908290602001825e015f815290565b611ad1939261032c92816040519687946020860190611aa5565b918237015f815203601f198101845283610bd5565b908060209392818452848401375f828201840152601f01601f1916010190565b916020610ca5938181520191611ae6565b611b459163ffffffff610cf99296949596165f52600360205260405f209061ffff165f5260205260405f2090565b805115611bae578315611ba8576002841015611b7957505061138c604051928392639a6d49cd60e01b845260048401611b06565b9092611b8e611b89368386611a6f565b612369565b806002116102a2576002610ca59301906001190191611ab7565b92509050565b509190610ca5913691611a6f565b634e487b7160e01b5f52603260045260245ffd5b9190811015611bf35760051b8101359061013e19813603018212156102a2570190565b611bbc565b903590601e19813603018212156102a257018035906001600160401b0382116102a2576020019181360383136102a257565b35610ca5816104c0565b6001600160401b038116036102a257565b929093611ca1926001600160401b036040610ca59a98999763ffffffff8135611c6d816107de565b168852602081013560208901520135611c8581611c34565b166040860152606085015260e0608085015260e0840191611ae6565b6001600160a01b0390941660a082015280840360c090910152611ae6565b6040513d5f823e3d90fd5b6020818303126102a2578051906001600160401b0382116102a2570181601f820112156102a257805190611cfd82611a54565b92611d0b6040519485610bd5565b828452602083830101116102a257815f9260208093018386015e8301015290565b60405190611d3982610b9f565b815f81525f60208201526040611d4d61198c565b910152565b60409060231901126102a25760405190611d6b82610b7f565b60243582526044356020830152565b611d89919392506108e2612584565b91808310610a2057508190565b63ffffffff16805f52600160205260405f2054908115611db4575090565b63f6ff4fb760e01b5f5260045260245ffd5b35610ca581611c34565b610ca5939260809260018060a01b0316825260208201525f604082015281606082015201906102a6565b5f546001600160a01b03163303611e0d57565b63118cdaa760e01b5f523360045260245ffd5b9190602083013590811561113257611eaf91611e6f611e63611e8c937f0000000000000000000000000000000000000000000000000000000000000000906123cd565b6001600160401b031690565b611e86611e7f60a0880188611bf8565b3691611a6f565b916128e2565b90939015611f3b576002905b611332611ea4826119bb565b916080810190611bf8565b6004549092906001600160a01b031680611ec857509190565b611eda906001600160a01b03166105ae565b6020604051809263043a78eb60e01b82528180611efb89886004840161275d565b03915afa801561072457611f0e57509190565b611f2f9060203d602011611f34575b611f278183610bd5565b810190612748565b509190565b503d611f1d565b600190611e98565b91908260409103126102a257604051611f5b81610b7f565b6020808294805184520151910152565b906040828203126102a257610ca591611f43565b906020909392936040835263ffffffff81511660408401528181015160608401526080611fd3611fbd604084015160a08488015260e08701906102a6565b6060840151868203603f190160a08801526102a6565b910151151560c08401526001600160a01b03909416910152565b8051821015611bf35760209160051b010190565b60206040818301928281528451809452019201905f5b8181106120245750505090565b909192602060606001926040875163ffffffff81511683528481015185840152015160408201520194019101919091612017565b5f5b81518110156120d7578061208f63ffffffff61207860019486611fed565b51511663ffffffff165f52600560205260405f2090565b6120a963ffffffff6120a18487611fed565b515116612782565b60206120b58386611fed565b5101516002820155600360406120cb8487611fed565b5101519101550161205a565b506121097fe888347665897e637801f36c5129f510657276178c89022bc5fa0246dbc19de19160405191829182612001565b0390a1565b601f821161211b57505050565b5f5260205f20906020601f840160051c83019310612153575b601f0160051c01905b818110612148575050565b5f815560010161213d565b9091508190612134565b91909182516001600160401b038111610b9a576121848161217e8454610b33565b8461210e565b6020601f82116001146121c35781906121b49394955f926121b8575b50508160011b915f199060031b1c19161790565b9055565b015190505f806121a0565b601f198216906121d6845f5260205f2090565b915f5b818110612210575095836001959697106121f8575b505050811b019055565b01515f1960f88460031b161c191690555f80806121ee565b9192602060018192868b0151815501940192016121d9565b602081016020825282518091526040820191602060408360051b8301019401925f915b83831061225a57505050505090565b909192939460208061229d600193603f19868203018752606060408b5163ffffffff815116845261ffff86820151168685015201519181604082015201906102a6565b9701930193019193929061224b565b5f5b815181101561233757806122d160406122c960019486611fed565b510151612369565b61233160406122e08386611fed565b51015163ffffffff6122f28487611fed565b5151165f52600360205261232c60405f2061231c6020612312878a611fed565b51015161ffff1690565b61ffff165f5260205260405f2090565b61215d565b016122ae565b506121097fbe4864a8e820971c0247f5992e2da559595f7bf076a21cb5928d443d2a13b6749160405191829182612228565b600361ffff6002830151160361237c5750565b604051639a6d49cd60e01b81526020600482015290819061138c9060248301906102a6565b634e487b7160e01b5f52601160045260245ffd5b818102929181159184041417156123c857565b6123a1565b81156123d7570490565b634e487b7160e01b5f52601260045260245ffd5b919392904203904282116123c857808210612408575050505f9190565b61241561241a92866123b5565b6123cd565b8082116124435750505f915b828082116124345750505f90565b810390811115610ca5576123a1565b81039081116123c85791612426565b906080828203126102a25761248c90604080519361246f85610b9f565b80518552602081015161248181611c34565b602086015201611f43565b604082015290565b6124f16080949261250d96946124a8611d2c565b5060206124b5865161280f565b950191825180612575575b506124ca85611d96565b92511515926124da61095561197d565b602086015260408501526060840152151585830152565b6040518095819482936302637a4560e41b845260048401611f7f565b03917f00000000000000000000000000000000000000000000000000000000000000006001600160a01b03165af1908115610724575f9161254c575090565b610ca5915060803d60801161256e575b6125668183610bd5565b810190612452565b503d61255c565b61257e9061282c565b5f6124c0565b60ff6006541661259057565b63d93c066560e01b5f5260045ffd5b6125ce9061090d7f000000000000000000000000000000000000000000000000000000000000000080926123cd565b9182918084106125db5750565b836371c4efed60e01b5f5260045260245260445ffd5b906020116102a2573590565b906028116102a2576020013560c01c90565b610ca5906001600160401b037f000000000000000000000000000000000000000000000000000000000000000091166123b5565b90915061264e612584565b6001600160a01b03811615611132577f00000000000000000000000000000000000000000000000000000000000000006001600160a01b0316803b156102a2576040516340c10f1960e01b81526001600160a01b03929092166004830152602482018390525f908290604490829084905af18015610724576126ce575090565b5f610ca591610bd5565b90806028116102a257610ca59136916027190190602801611a6f565b909261273a90610ca5936040519586946001600160401b0360c01b9060c01b16602086015263ffffffff60e01b9060e01b166028850152602c840152604c830190611aa5565b03601f198101835282610bd5565b908160209103126102a25751610ca581610871565b9091612774610ca5936040845260408401906102a6565b9160208184039101526102a6565b63ffffffff165f52600560205260405f208054906127b1600182019283546002840154906003850154926123eb565b509055429055565b63ffffffff165f52600560205260405f20908154916127e9600182019384546002840154906003850154926123eb565b839193116128005782018092116123c85755429055565b63a74c1c5f60e01b5f5260045ffd5b8034036128195790565b6304fb820960e51b5f523460045260245ffd5b60405163393f876560e21b81527f00000000000000000000000000000000000000000000000000000000000000006001600160a01b03169190602081600481865afa908115610724575f916128a7575b506001600160a01b03169182156128985761032c923390612957565b6329b99a9560e11b5f5260045ffd5b90506020813d6020116128da575b816128c260209383610bd5565b810103126102a257516128d4816104c0565b5f61287c565b3d91506128b5565b82511580159390612928579061273a6129259260405194859360208501526001600160401b0360c01b9060c01b1660408401523360488401526068830190611aa5565b91565b50906040519160208301526001600160401b0360c01b9060c01b16604082015260288152612925604882610bd5565b6040516323b872dd60e01b5f9081526001600160a01b039384166004529290931660245260449390935260209060648180865af160015f51148116156129c5575b6040919091525f606052156129aa5750565b635274afe760e01b5f526001600160a01b031660045260245ffd5b6001811516611129573d15833b1515161661299856fea26469706673582212208354e4a4672c53cea8b59cc031b4086263e27901dd15dba8447d11e48a0af0c164736f6c634300081c0033","linkReferences":{}},"methodIdentifiers":{"SEND()":"1f5e1334","SEND_AND_CALL()":"134d4f25","allowInitializePath((uint32,bytes32,uint64))":"ff7bd03d","approvalRequired()":"9f68b964","combineOptions(uint32,uint16,bytes)":"bc70b354","decimalConversionRate()":"963efcaa","endpoint()":"5e280f11","enforcedOptions(uint32,uint16)":"5535d461","getAmountCanBeSent(uint32)":"c272198d","isComposeMsgSender((uint32,bytes32,uint64),bytes,address)":"82413eac","isPeer(uint32,bytes32)":"5a0dfe4d","lzReceive((uint32,bytes32,uint64),bytes32,bytes,address,bytes)":"13137d65","lzReceiveAndRevert(((uint32,bytes32,uint64),uint32,address,bytes32,uint256,address,bytes,bytes)[])":"bd815db0","lzReceiveSimulate((uint32,bytes32,uint64),bytes32,bytes,address,bytes)":"d045a0dc","msgInspector()":"111ecdad","nextNonce(uint32,bytes32)":"7d25a05e","oApp()":"52ae2879","oAppVersion()":"17442b70","oftVersion()":"156a0d0f","owner()":"8da5cb5b","pause()":"8456cb59","paused()":"5c975abb","peers(uint32)":"bb0b6a53","preCrime()":"b731ea0a","quoteOFT((uint32,bytes32,uint256,uint256,bytes,bytes,bytes))":"0d35b415","quoteSend((uint32,bytes32,uint256,uint256,bytes,bytes,bytes),bool)":"3b6f743b","rateLimits(uint32)":"ab99095d","renounceOwnership()":"715018a6","rescueERC20(address,address,uint256)":"b2118a8d","send((uint32,bytes32,uint256,uint256,bytes,bytes,bytes),(uint256,uint256),address)":"c7c7f5b3","setDelegate(address)":"ca5eb5e1","setEnforcedOptions((uint32,uint16,bytes)[])":"b98bd070","setMsgInspector(address)":"6fc1b31e","setPeer(uint32,bytes32)":"3400288b","setPreCrime(address)":"d4243885","setRateLimits((uint32,uint256,uint256)[])":"46f943e9","sharedDecimals()":"857749b0","token()":"fc0c546a","transferOwnership(address)":"f2fde38b","unpause()":"3f4ba83a"},"id":93}